:020000040800F2
:10000000000B002001010008090100080B01000895
:100010000D0100080F010008110100080000000098
:1000200000000000000000000000000013010008B4
:10003000150100080000000017010008C90F0008A2
:100040002D1D00081B0100081B0100081B010008F2
:100050001B0100081B010008B90300081B01000870
:100060001B0100081B0100081B0100081B01000800
:100070001B0100081B0100081B0100081B010008F0
:100080001B0100081B0100081B0100081B010008E0
:100090001B0100081B0100081B010008CF0300081A
:1000A0001B0100081B0100081B0100081B010008C0
:1000B000ED1000081B010008051100081B010008D5
:1000C0001B0100081B0100081B0100081B010008A0
:1000D0001B010008091B00081B0100081B01000888
:1000E0001B0100081B0100081B010008DFF80CD0F1
:1000F00000F06CF80048004781230008000B002046
:100100000648804706480047FEE7FEE7FEE7FEE7B1
:10011000FEE7FEE7FEE7FEE7FEE7FEE78D100008DC
:10012000ED00000840EA01039B0703D009E008C97D
:10013000121F08C0042AFAD203E011F8013B00F8AC
:10014000013B521EF9D27047D2B201E000F8012BF8
:10015000491EFBD270470022F6E710B513460A4647
:1001600004461946FFF7F0FF204610BD00F020B806
:1001700030B50B46014600202022012409E021FA77
:1001800002F59D4205D303FA02F5491B04FA02F574
:100190002844151EA2F10102F1DC30BD034870476E
:1001A0000248001D011F8860001D70478800002064
:1001B00010B500F020F8016919B1002202618847EA
:1001C00001E080688047AFF300800000064C074DD7
:1001D00006E0E06840F0010394E807009847103417
:1001E000AC42F6D3FFF786FF2055000840550008C3
:1001F00010B5AFF3008070B5FFF7D2FF0468054675
:10020000A4B9202002F072FA040011D0094900209C
:100210002C60C4E900010849A1602073206160617D
:100220000649A06109B100F00BF8E061204670BDFD
:10023000AFF3008000000000F101000800000000A2
:1002400010B5882002F052FA002801D00021017078
:1002500010BD802902D808B1017809B1002070478B
:10026000012100F8081B704718B100F10802914203
:1002700001D0002070470021017070477FB5012038
:1002800001F0A0FE04460C20207025469DF80000D9
:1002900028709DF8010068709DF80200A8709DF814
:1002A0000300E8709DF8040028719DF8050068714E
:1002B0009DF80700A8719DF80800E8719DF80900F5
:1002C00028729DF80A0068729DF80B00A8729DF8CC
:1002D0000C00E872284604B070BD10B54FF4FA6007
:1002E00081068886401D8885962000F04FF840F6EC
:1002F000E46001078885962000F048F840F64A50EF
:1003000041078885962000F041F840F6C830C106C4
:100310008885962000F03AF800204FF080418886CA
:1003200010BD000070B500F05FFE14480068144A6C
:10033000B0FBF2F1B1F1807F00D31DE021F07F40EE
:10034000401E4FF0E022506150170F22002807DABC
:1003500013071D0E0B4B00F00F04241F1D5503E067
:1003600013071C0E084B1C5400BF00204FF0E02266
:1003700090610720106100BF70BD000028000020C0
:1003800040420F0018ED00E000E400E000B5024636
:1003900003E04FF47A7000F005F8101EA2F101029C
:1003A000F7D100BD0349086000BF02490968002970
:1003B000FBD170475000002010B5012000F018F864
:1003C00020B1012000F00EF801F0C4FF10BD10B5FF
:1003D000202000F00DF820B1202000F003F801F0FB
:1003E000B9FF10BD014908607047000014040140C6
:1003F000014600200022074B1B6803EA0102054B5F
:1004000014331B680B4013B10AB1012000E0002037
:10041000704700000004014010B50121052000F0E4
:1004200083FA0121092000F07FFA0121112000F058
:100430007BFA42F238000A490880032088701020B5
:10044000C870084800F012F84FF480500449088042
:10045000032088701020C870034800F007F810BD12
:100460000000002000100140000801402DE9F0418B
:10047000024600250026002000230024002791F8D2
:1004800003C00CF00F0591F803C00CF0100CBCF188
:10049000000F03D091F802C04CEA050591F800C0A6
:1004A000BCF1000F31D0146800202BE04FF0010C9C
:1004B0000CFA00F3B1F800C00CEA03069E4220D10A
:1004C00083004FF00F0C0CFA03F7BC4305FA03FC52
:1004D0004CEA040491F803C0BCF1280F06D14FF098
:1004E000010C0CFA00FCC2F814C00AE091F803C039
:1004F000BCF1480F05D14FF0010C0CFA00FCC2F81A
:1005000010C0401C0828D1D31460B1F800C0BCF161
:10051000FF0F34DD546800202EE000F1080C4FF08E
:10052000010808FA0CF3B1F800C00CEA03069E4279
:1005300021D183004FF00F0C0CFA03F7BC4305FAEE
:1005400003FC4CEA040491F803C0BCF1280F05D168
:1005500000F1080C08FA0CF8C2F8148091F803C0F6
:10056000BCF1480F07D100F1080C4FF0010808FA60
:100570000CF8C2F81080401C0828CED35460BDE8A7
:10058000F0810246002093680B400BB1012000E08F
:100590000020704702460020D3680B400BB10120B9
:1005A00000E000207047416170470161704770B5FD
:1005B00002460024002500230020958A138B1B048B
:1005C00045EA030626F07F4404EA01068E4201D183
:1005D000012000E0002070BD21B1028842F001023C
:1005E000028004E002884FF6FE731A4002807047D2
:1005F0002DE9F04385B004460D460026B146042798
:10060000DFF8CC80A6884FF6C0700640684600F040
:10061000ABF9DDF808802F48B8FBF0F01FFA80F93D
:1006200046EA0906A68020884FF6FE710840208021
:1006300000262949286888420CD828684000B8FB61
:10064000F0F087B2042F00DA04273E4309F10100DD
:10065000208427E0E8884BF6FF71884206D128689D
:1006600000EB4000B8FBF0F087B209E0286800EB2F
:10067000C00101EB0010B8FBF0F087B247F48047EF
:10068000C7F30B0008B947F0010747F400400643E1
:100690004FF4967009FB00F04FF47A7190FBF1F083
:1006A000401C2084A683208840F0010020802688FA
:1006B0004FF6F5300640A88869890843064326802E
:1006C000A88929890843208105B0BDE8F08300008E
:1006D00000127A0040420F00A086010000B589B0E8
:1006E0000121084600F000F90121052000F01CF965
:1006F0000120ADF8200018208DF8230003208DF88C
:10070000220008A91D48FFF7B1FE0420ADF814002F
:100710000020ADF816004FF4FA60ADF81800002084
:10072000ADF81A004FF0804000F030FD05A94FF001
:10073000804000F099FE01A800F08BFE6020ADF82B
:1007400004000020ADF80C00ADF80A0001A94FF03C
:10075000804000F029FE0821C80600F071FE01214A
:10076000880700F0E9FC0121880700F003FD012261
:100770000021900700F0ECFC09B000BD000801402A
:1007800000B587B0012141F2010000F0CDF8012150
:10079000042000F0C9F810208DF81B0003208DF80C
:1007A0001A004FF40060ADF8180006A92248FFF7C0
:1007B0005DFE18208DF81B0003208DF81A00E02044
:1007C000ADF8180006A91C48FFF750FE4FF48270E0
:1007D000ADF806001020ADF810000020ADF80400C0
:1007E000ADF80A00ADF80C000720ADF814000020A9
:1007F000ADF80800ADF812004FF40070ADF80E002F
:1008000001A90E4800F050F94FF480710B4800F038
:1008100069F90121094800F02DF901F0EBFF0221EF
:100820000548FFF7C0FE01F097FF08B900BFFEE7DB
:1008300002F00CF807B000BD000801400030014094
:1008400010B54FF4E06000F045F825200449087029
:10085000002088700120C870084600F003F810BD21
:100860000C00002070B5002100230F22C47804B3CF
:10087000154C246804F4E064C4F5E064210AC1F175
:100880000403CA40447804FA03F1847814402143F5
:1008900009010E4C0678A155047804F01F050124C7
:1008A000AC4005786D11AD0005F1E025C5F80041BB
:1008B00009E0047804F01F050124AC40044D0678DB
:1008C000761145F8264070BD0CED00E000E400E034
:1008D00080E100E002490143024A116070470000D4
:1008E0000000FA050CED00E029B1064AD269024386
:1008F000044BDA6104E0034AD2698243014BDA61B6
:10090000704700000010024029B1064A12690243F4
:10091000044B1A6104E0034A12698243014B1A61D5
:10092000704700000010024029B1064A9269024354
:10093000044B9A6104E0034A92698243014B9A6135
:10094000704700000010024029B1064AD2680243F5
:10095000044BDA6004E0034AD2688243014BDA6058
:10096000704700000010024030B500210022002432
:1009700000232D4D6D6805F00C0121B1042905D02F
:10098000082923D105E0294D056022E0274D0560A7
:100990001FE0254D6D6805F47012234D6D6805F458
:1009A0008034022505EB92421CB9214D5543056068
:1009B0000BE01D4D6D6805F400351DB11C4D554310
:1009C000056002E0194D5543056002E0174D0560D2
:1009D00000BF00BF144D6D6805F0F0010909154D09
:1009E0006B5C0568DD4045600F4D6D6805F4E061A6
:1009F000090A104D6B5C4568DD4085600A4D6D68E5
:100A000005F46051C90A0B4D6B5C4568DD40C5605B
:100A1000054D6D6805F44041890B074D6B5CC56859
:100A2000B5FBF3F5056130BD0010024000127A00FD
:100A300000093D003C0000204C00002010B5044699
:100A400000BF02210A4800F021F80028F9D0214611
:100A5000074800F027F800BF0121054800F016F80C
:100A60000028F9D0024800F01AF8C0B210BD00000A
:100A70000038004021B1028842F04002028004E0C8
:100A800002884FF6BF731A4002807047024600206A
:100A900013890B400BB1012000E000207047014694
:100AA000888970478181704710B50022028802F45E
:100AB00041520B884C8823438C882343CC882343A2
:100AC0000C8923434C8923438C892343CC892343BA
:100AD0001A430280838B4FF2FF74234083830B8A77
:100AE000038210BD4FF6FF62914204D0028842F4A7
:100AF0008072028004E002884FF6FF631A40028091
:100B000070470000F0B503461446802B01DA4029F7
:100B100000DBF0BD2148007920B10CB9012000E0D4
:100B200000200446012C1CD1CD1701EB5575ED10AA
:100B300003EBC5151A4E755D0A46CE1701EB5676C6
:100B4000F610A1EBC6070126BE403543EEB20846BB
:100B5000CD1701EB5575ED1003EBC515104F7E5504
:100B60001AE0CD1701EB5575ED1003EBC5150C4ED2
:100B7000755D0A46CE1701EB5676F610A1EBC60757
:100B80000126BE40B5430846CE1701EB5676F61057
:100B900003EBC616024FBD5500BFBAE77000002038
:100BA000FB00002010B504460CB9002000E0FF2037
:100BB00002464FF480610248FFF7C6FA10BD0000FC
:100BC000FB000020014A1080518070477000002017
:100BD00010B540F6C41401F07BFF78215F4801F0A6
:100BE000B1FF08B9002010BD00E0641E002CFCD14C
:100BF000AE2300227821594802F02EF8202300224B
:100C00007821564802F028F8102300227821534812
:100C100002F022F8B02300227821504802F01CF89C
:100C2000C823002278214D4802F016F800231A4606
:100C300078214A4802F010F8102300227821474812
:100C400002F00AF8402300227821444802F004F818
:100C5000812300227821414801F0FEFFFF2300227A
:100C600078213E4801F0F8FFA123002278213B487B
:100C700001F0F2FFA62300227821384801F0ECFFB2
:100C8000A82300227821354801F0E6FF3F23002207
:100C90007821324801F0E0FFA423002278212F4878
:100CA00001F0DAFFD323002278212C4801F0D4FF91
:100CB00000231A467821294801F0CEFFD5230022CF
:100CC0007821264801F0C8FFF0230022782123482C
:100CD00001F0C2FFD92300227821204801F0BCFF97
:100CE0002223002278211D4801F0B6FFDA230022DA
:100CF00078211A4801F0B0FF12230022782117480A
:100D000001F0AAFFDB2300227821144801F0A4FFA0
:100D1000202300227821114801F09EFF8D2300221C
:100D200078210E4801F098FF1423002278210B4807
:100D300001F092FFAF2300227821084801F08CFFD8
:100D40000020FFF72FFF00F077F80020044908800B
:100D500048800120487100BF45E700000054004072
:100D6000700000202DE9F04307460C4690462648C7
:100D7000008821780844802805DA23484088617873
:100D80000844402802DB0020BDE8F083002530E065
:100D9000A7F12000617800FB0150616831F81090E4
:100DA000002622E009FA06F000F4004058B1164A85
:100DB00052882A4491B2144A1288324490B2424670
:100DC000FFF7A0FE10E0B8F1000F01D1012300E011
:100DD00000231A460C4B5B882B4499B20A4B1B88A4
:100DE000334498B2FFF78EFE761C2078B042D9D8F3
:100DF0006D1C6078A842CBD803480088217808444D
:100E0000014908803846BFE77000002070B50446ED
:100E10000D4616460AE0207832462946FFF7A2FF23
:100E20002178884201D0207870BD641C2078002889
:100E3000F1D12078F8E7000038B5002420E004F173
:100E4000B000C3B2002278210F4801F005FF002353
:100E50001A4678210C4801F0FFFE10230022782169
:100E6000094801F0F9FE802000900848802101FB2C
:100E7000040340227821044801F01EFF601CC4B224
:100E8000082CDCDB38BD000000540040FB000020D3
:100E900010B500F001F810BD0CB5002001900090D5
:100EA0003348006840F480303149086000BF304862
:100EB000006800F4003000900198401C01900098F8
:100EC00018B90198B0F5A06FF1D12948006800F475
:100ED000003010B10120009001E000200090009847
:100EE000012843D12348006840F0100021490860E0
:100EF0000846006820F0030008600846006840F0DB
:100F0000020008601A48406819494860084640686D
:100F100048600846406840F4806048600846406881
:100F200020F47C1048600846406840F4E8104860AF
:100F30000846006840F08070086000BF0C480068F8
:100F400000F000700028F9D00948406820F0030044
:100F5000074948600846406840F00200486000BF0A
:100F60000348406800F00C000828F9D10CBD0000CF
:100F7000001002400020024010B5FF2001F018FCD4
:100F80000A2001F06FFD002001F03CFD0C2001F073
:100F900029FD052001F01EFD0949012001F0DEFCBC
:100FA00020220121084601F065FD012001F038FDF5
:100FB000022001F045FD02210248FFF7F6FA10BDBC
:100FC000FA2C00080008014010B5642000F0B8FEBB
:100FD0000448006820B103480068401E01490860C9
:100FE00010BD00005000002010B50021002000229C
:100FF000214B5B6803F00C0121B1042906D00829BC
:1010000028D107E01D4B1E4C236027E01B4B1C4CD6
:10101000236023E0184B5B6803F47010164B5B6889
:1010200003F48032022303EB904022B9154B434373
:10103000134C23600DE0104B5B6803F4003323B1C5
:10104000104B43430E4C236003E00C4B43430C4CCA
:10105000236003E0094B0A4C236000BF00BF064B2E
:101060005B68C3F30313084CE15C054B1B68CB4082
:10107000034C236010BD00000010024000127A00F3
:101080002800002000093D002C00002010B5134866
:10109000006840F0010011490860084640681049A6
:1010A00008400E494860084600680E4908400B4950
:1010B00008600846006820F4802008600846406800
:1010C00020F4FE0048604FF41F008860FFF7E0FE48
:1010D0004FF000600449086010BD0000001002409D
:1010E0000000FFF8FFFFF6FE08ED00E010B501215B
:1010F000880700F03FF918B10121880700F037F8A0
:1011000010BD000010B50121094800F033F970B19D
:101110000121074800F02BF806480068401C0549EB
:10112000086008460068401C08B90020086010BD2F
:10113000000800401C00002021B1028842F080021B
:10114000028004E002884FF67F731A4002807047E5
:1011500030B5002301248C40A3B2048C9C4304844A
:10116000048C02FA01F5ADB22C43048430BDCA43AD
:101170000282704721B1028842F00102028004E03D
:1011800002884FF6FE731A400280704710B504467D
:101190006848844208D10121C014FFF7D5FB002123
:1011A000E014FFF7D1FBC4E0B4F1804F08D1012176
:1011B0000846FFF7A9FB00210120FFF7A5FBB8E0D7
:1011C0005D48844208D101210220FFF79DFB0021E8
:1011D0000220FFF799FBACE05848844208D1012176
:1011E0000420FFF791FB00210420FFF78DFBA0E016
:1011F0005348844208D101210820FFF785FB0021D4
:101200000820FFF781FB94E04E48844208D1012179
:101210001020FFF779FB00211020FFF775FB88E015
:101220004948844208D101212020FFF76DFB0021AD
:101230002020FFF769FB7CE04448844208D101216B
:101240004014FFF781FB00216014FFF77DFB70E085
:101250003F48844209D10121C804FFF775FB0021F2
:101260004FF40020FFF770FB63E03A48844209D155
:1012700001210805FFF768FB00214FF48010FFF7FC
:1012800063FB56E03448844209D101214805FFF749
:101290005BFB00214FF40010FFF756FB49E02F489D
:1012A000844208D101214020FFF72EFB002140207D
:1012B000FFF72AFB3DE02A48844208D10121802023
:1012C000FFF722FB00218020FFF71EFB31E02548BD
:1012D000844208D101218015FFF716FB0021A015DB
:1012E000FFF712FB25E02048844209D101210804C0
:1012F000FFF72AFB00214FF48030FFF725FB18E0B1
:101300001A48844209D101214804FFF71DFB00213E
:101310004FF40030FFF718FB0BE01548844208D16A
:1013200001218804FFF710FB00214FF48020FFF714
:101330000BFB10BD002C01400004004000080040E1
:10134000000C004000100040001400400034014038
:10135000004C014000500140005401400018004082
:10136000001C0040002000400040014000440140BB
:101370000048014030B50246002000230024158AB1
:1013800005EA0103958905EA010413B10CB10120B6
:1013900000E0002030BD1AB183890B43838102E055
:1013A00083898B438381704770B50024002200231A
:1013B000058C4FF6FE7635400584028C8388048BBD
:1013C0004FF68F752C40B51E2C400D882C43751E92
:1013D0002A400D892A434D882A43144DA8420BD038
:1013E000134DA84208D0134DA84205D0124DA84273
:1013F00002D0124DA84213D14FF6F7752A404D89FD
:101400002A434FF6FB752A408D882A434FF6FF6525
:101410002B404FF6FF552B408D892B43CD892B4315
:1014200083800483CD888586028470BD002C0140B2
:1014300000340140004001400044014000480140A8
:101440000A460021018B4FF6F773194011430183BF
:1014500070470021018041808180C18001814181EC
:101460008181C18170470000002202881D4B984293
:101470000ED01D4B98420BD0B0F1804F08D01B4BC3
:10148000984205D01A4B984202D01A4B984204D188
:101490004FF68F731A404B881A43174B984207D068
:1014A000164B984204D04FF6FF431A40CB881A439C
:1014B00002808B8883850B8803850A4B98420BD06A
:1014C000094B984208D00E4B984205D00D4B9842DC
:1014D00002D00D4B984201D10B7A038601238382FF
:1014E00070470000002C014000340140000400401F
:1014F00000080040000C00400010004000140040B4
:1015000000400140004401400048014010B5142053
:1015100000F010F9044604F0030018B90321142068
:1015200000F049F910BD2DE9FC41044600270021D7
:101530000D2000F0E3F9932020702020607001A8B6
:1015400023460222214600900C2000F041F9064675
:101550005EB9002503E0605D4740681CC5B2042DFC
:10156000F9DB605DB84200D002263046BDE8FC8160
:101570002DE9F0410746884615460421052000F074
:1015800039F880210A2000F016F9002405E0395DC1
:10159000092000F0B3F9601CC4B24445F7DB032115
:1015A000012000F0ABF9FF2400BF052000F0C2F8D5
:1015B0000646601EC4B21CB106F004000028F4D038
:1015C000222000F0B7F82870212000F0B3F86870EE
:1015D000BDE8F08170B504462146262000F0CCF825
:1015E00005461DB92046FFF79EFF054600F00FF89F
:1015F000284670BD70B505460C46284600F09AF89E
:1016000020EA04063146284600F078F970BD0EB590
:1016100050208DF8040000208DF805000DF1060221
:10162000022101A8FFF7A4FF02A801AB042201A92F
:1016300000900C2000F0CCF80EBD000010B500F0BA
:1016400029F84FF480511248FEF7AFFF00F0ADF8D3
:101650008D212A2000F052F93E212B2000F04EF976
:101660001E212D2000F04AF900212C2000F046F91F
:101670007021262000F042F94021152000F03EF9AB
:101680003D21112000F03AF9FFF740FF10BD0000A6
:10169000000C014000B587B001218803FFF724F951
:1016A0004FF48050ADF8040003208DF806001020A0
:1016B0008DF8070001A91D48FEF7D8FE4FF48051B0
:1016C0001A48FEF772FF4FF46040ADF804000320A3
:1016D0008DF8060018208DF8070001A91348FEF7C1
:1016E000C5FE0020ADF808004FF48270ADF80A0086
:1016F0000020ADF80C00ADF80E00ADF810004FF46E
:101700000070ADF812001020ADF814000020ADF804
:1017100016000720ADF8180002A90548FFF7C4F924
:1017200001210348FFF7A6F907B000BD000C0140F6
:101730000038004070B504464FF480510D48FEF764
:1017400032FF6420FEF72EFE7E2101EA440141F0C3
:101750008000FFF773F96420FEF724FE0020FFF7F6
:101760006DF905464FF480510248FEF71EFF2846EA
:1017700070BD0000000C01407CB506460C460721F8
:101780000D2000F0BBF8267001A823460122214657
:1017900000900C2000F01CF805461DB9BDF80400AF
:1017A000102800D0022528467CBD10B50F2101204D
:1017B00000F0A4F810BD70B505460C462846FFF7AA
:1017C000B9FF40EA04063146284600F097F870BD9C
:1017D0002DE9FE4F0646884691469A46DDF830B020
:1017E000022002900020019000900C2E06D00E2EB8
:1017F00009D1122001901020009005E0772001907F
:101800003020009000E000BF00BF019840F0800150
:10181000022000F073F880210420FFF7EBFE802106
:101820000A20FFF7C8FF0021012000F067F800251B
:1018300006E018F80510092000F060F8681C85B271
:101840004D45F6DB3146012000F058F80C2E03D14F
:1018500080210D20FFF7AFFF4FF4FA6500BF042091
:10186000FFF768FF0446681E85B235B104F0010039
:1018700018B9009820400028F1D080210D20FFF7F2
:10188000B9FE002D36D00620FFF754FF00F01B00F4
:1018900070BB002002900198204000F0010008B1C8
:1018A000012002900C2E25D10A20FFF743FF0446A9
:1018B0000C20FFF73FFF00F007072FB1601E07EB7A
:1018C000C000ABF8000002E0E000ABF8000004B993
:1018D0000124102C00DD1024002506E00920FFF76C
:1018E00029FF0AF80500681C85B2A542F6DB01E075
:1018F000022002900298BDE8FE8F000070B50446F9
:101900000D464FF480510B48FEF74DFE6420FEF764
:1019100049FD7E2101EA4400FFF790F86420FEF7BC
:1019200041FD2846FFF78AF84FF480510148FEF741
:101930003CFE70BD000C014010B500F05FF804469D
:101940002D48007818B12C480078022801D1E043D6
:1019500084B204F0010008B1002010BD04F00200C0
:1019600008B10120F9E704F0040008B10220F4E70F
:1019700004F0080008B10320EFE704F0100008B1FC
:101980000420EAE704F0200008B10520E5E704F0B0
:10199000400008B10620E0E704F0800008B107200D
:1019A000DBE704F4807008B10820D6E704F4007087
:1019B00008B10920D1E704F4806008B10A20CCE71F
:1019C00004F4006008B10B20C7E704F4805008B1AC
:1019D0000C20C2E704F4005008B10D20BDE704F468
:1019E000804008B10E20B8E704F4004008B10F2091
:1019F000B3E71020B1E700005400002010B5002428
:101A00000D480078032801D14FF47F440A4800783C
:101A100030B1012805D0022806D003280AD104E0FD
:101A200000BF00F091FA10BD00BF00F04FFA204453
:101A300080B2F8E72046F6E75400002038B50446A7
:101A40001448047001210420FEF76EFF0420ADF855
:101A5000000010208DF8030003208DF80200694675
:101A60000D48FEF703FD0820ADF8000048208DF872
:101A7000030069460848FEF7F9FC0648007801288B
:101A800003D004480078032803D104210248FEF75C
:101A90008CFD38BD54000020000801401FB5012115
:101AA0000420FEF721FF48F6A040ADF80400002016
:101AB000ADF806000120ADF808000020ADF80A00DE
:101AC0008DF80C0001A90F48FFF7CEFC01210D484D
:101AD000FFF750FB012211460A48FFF75CFC4FF468
:101AE0004070FEF7F7FE1E208DF8000000208DF8F4
:101AF00001008DF8020001208DF803006846FEF712
:101B0000B1FE1FBD0008004010B540F22551064847
:101B100000F027F838B1044800F0DEF8044621460A
:101B200002A000F063FA10BD0038014025640000F7
:101B300021B1828942F40052828104E082894DF60B
:101B4000FF731A408281704702460020B1F5007F82
:101B500000D100BF13880B400BB1012000E0002032
:101B6000704770B50246002400230025002040F68F
:101B70006A16B14200D100BFC1F3421501F01F0344
:101B8000012606FA03F3012D02D19689334006E0BF
:101B9000022D02D1168A334001E0968A33400C129E
:101BA000012606FA04F41688344013B10CB1012062
:101BB00000E0002070BDF0B503460024002600259B
:101BC000002040F66A17B94200D100BF1846C1F3A1
:101BD000421401F01F06012707FA06F5012C01D176
:101BE0000C3004E0022C01D1103000E014301AB1A6
:101BF00007682F43076002E00768AF430760F0BD46
:101C00002DE9F04786B005460E460024A24600BFE7
:101C1000A1460027B08900B100BF2F462C8A4CF6A0
:101C2000FF700440F08804432C82AC894EF6F31018
:101C30000440B08831890843718908430443AC816A
:101C4000AC8A4FF6FF400440B0890443AC8201A83F
:101C5000FEF78AFE1F48874202D1DDF810A001E09E
:101C6000DDF80CA0A88900F4004040B10AEBCA00DE
:101C700000EB0A1031684900B0FBF1F807E00AEB0D
:101C8000CA0000EB0A1031688900B0FBF1F864204B
:101C9000B8FBF0F004012009642101FB1089A88938
:101CA00000F4004040B1322000EBC900B0FBF1F07D
:101CB00000F00700044308E0322000EB0910642123
:101CC000B0FBF1F000F00F0004432C8106B0BDE83A
:101CD000F08700000038014001468888C0F3080002
:101CE0007047C1F30802828070470000002001495C
:101CF00008607047082C004010B50121C802FEF7AB
:101D000003FE00214FF40060FEF7FEFD10BD000051
:101D100040F08001014A116070470000002C004033
:101D20000120014908607047A48005420348C0684B
:101D300080F400500149C860704700000010014065
:101D400000F07F01014A116070470000002C004044
:101D50000021044A126822F4C0710143014A116053
:101D600070470000042C004008B50021009107498D
:101D7000096821F07F01009100F07F01009A114372
:101D80000091024A0099116008BD0000042C004037
:101D900008B50121C802FEF7A7FDFFF7ADFF4FF41C
:101DA000C070FFF7D5FF7F20FFF7DEFFFFF79EFF34
:101DB0007F20FFF7C5FF6420FFF7AAFFFFF7B0FF02
:101DC00000208DF800008DF801008DF80200012040
:101DD0008DF803006846FEF745FD08BD70B5044662
:101DE00010210848FEF7DFFB04F01F0000F07CFD27
:101DF000FF2000F079FD054610210248FEF7D5FBD3
:101E0000284670BD0008014070B504460D461021FB
:101E10001048FEF7C8FB202C09DA04F01F0141F03E
:101E2000200000F061FD284600F05EFD0DE0204638
:101E300000F05AFDE12C08D0E22C06D0E32C04D0AF
:101E4000FF2C02D0284600F04FFD10210148FEF77C
:101E5000ACFB70BD0008014070B506460C46154647
:101E600010210B48FEF79FFB304600F03DFD04E0DB
:101E7000FF2000F039FD04F8010B281EA5F1010137
:101E8000CDB2F5D110210248FEF78FFB70BD0000E6
:101E90000008014070B506460C46154610210A4858
:101EA000FEF781FB304600F01FFD03E014F8010B44
:101EB00000F01AFD281EA5F10101CDB2F6D11021C6
:101EC0000148FEF772FB70BD0008014070B50024A8
:101ED000002531E01A48007838B1012817D00228CF
:101EE00002D0032824D111E000BF04211548FEF7D9
:101EF0005AFB08211348FEF744FB10B10DB144F022
:101F0000800404210F48FEF750FB12E000BF0421BB
:101F10000C48FEF74AFB08210A48FEF732FB10B9CD
:101F20000DB144F0800404210648FEF73CFB00E0BC
:101F300000BF00BF64106D1C092DCBDB204670BDB7
:101F4000540000200008014070B50024002531E055
:101F500064101A48007838B1012817D0022802D03E
:101F6000032824D111E000BF04211548FEF71DFB12
:101F700008211348FEF705FB10B90DB144F40044E5
:101F800004210F48FEF70FFB12E000BF04210C48AC
:101F9000FEF70BFB08210A48FEF7F3FA10B90DB162
:101FA00044F4004404210648FEF7FDFA00E000BFB7
:101FB00000BF6D1C112DCBDB204670BD54000020EE
:101FC0000008014010B5040007D1012405E0FEF728
:101FD000E5F8006800B904488047204600F086FB19
:101FE0000028F4D010BD00006D0100080FB4054BAF
:101FF00010B503A9044A029800F02CF810BC5DF853
:1020000014FB0000192200087C0000200FB4084BCC
:1020100010B504A902AA039800F01CF8044602A90E
:10202000002000F0F3F8204610BC5DF814FB00001F
:102030000D22000802E008C8121F08C1002AFAD1C8
:1020400070477047002001E001C1121F002AFBD138
:10205000704700002DE9FF4F8BB09A460F460546AA
:10206000002606E025280BD052460D9990476D1C9E
:10207000761C28780028F5D10FB03046BDE8F08FE7
:102080000024A0460122604900E0044315F8013F06
:10209000203B02FA03F00842F7D128782E2817D106
:1020A00015F8010F44F004042A280ED06FF02F0217
:1020B0002878A0F1300109290AD808EB880102EB41
:1020C000410100EB01086D1CF2E757F8048B6D1C11
:1020D000287869283ED006DC0028CDD063280BD0B4
:1020E000642804D136E0732810D075284BD05246AE
:1020F0000D999047761C85E017F8040B8DF80000C9
:1021000000208DF80100E946012003E057F8049B08
:102110004FF0FF3061074FF0000401D40AE0641C67
:1021200044450DDA8442FADB19F804100029F6D18F
:1021300006E0641C8442FCDB19F804100029F8D185
:10214000264404E019F8010B52460D999047641E8D
:10215000F8D257E001CF4FF00A0B002802DA4042D4
:102160002D2102E0210504D52B218DF82410012119
:1021700003E0E10705D02021F7E70DF120090891E0
:102180000CE00021F9E701CF4FF00A0BF9E75946BF
:10219000FDF7EEFF01F1300209F8012D0028F6D11C
:1021A000ADEB090000F1200B600701D44FF00108EE
:1021B000D84502DDA8EB0B0000E00020804600249B
:1021C00006E009A85246005D0D999047641C761CF4
:1021D00008988442F5DB04E0302052460D99904780
:1021E000761CB8F10001A8F10108F5DC05E019F84A
:1021F000010B52460D999047761CBBF10001ABF1E3
:10220000010BF4DC6D1C34E7092801000A68531C3B
:102210000B6010707047000070B504460D4600BF9B
:1022200080210948FFF790FC0028F9D0E1B2064868
:10223000FFF757FD00BF40210348FFF785FC00284A
:10224000F9D0204670BD00000038014000B585B0CF
:10225000FEF71CFF01211020FEF766FB4FF4005033
:10226000ADF8100003208DF8120010208DF8130037
:1022700004A93448FEF7FAF84FF400513148FEF74C
:1022800092F9012144F20400FEF74EFB4FF4165080
:1022900000900C20ADF80A000020ADF80600ADF863
:1022A0000400ADF80800ADF80C0069462648FFF7B9
:1022B000A7FC012240F225512348FFF77CFC0122B4
:1022C00040F225512148FFF776FC01211E48FFF717
:1022D0002FFC4FF40070ADF8100018208DF813009B
:1022E00003208DF8120004A91948FEF7BFF84FF437
:1022F0008060ADF8100004208DF8130003208DF8E5
:10230000120004A91248FEF7B1F80420ADF810003D
:1023100018208DF8130003208DF8120004A90C4832
:10232000FEF7A4F80820ADF8100004208DF8130083
:1023300003208DF8120004A90548FEF797F805B0B0
:1023400000BD000000100140003801400044004082
:102350000008014010B54FF400510848FEF71AF983
:102360000446012C04D141030448FEF71CF904E0A3
:102370004FF400510148FEF718F910BD001001405C
:1023800088B00C2000F0B2F90546B3A000680790B1
:10239000B1A000680690B0A000680590FEF79EF915
:1023A000FFF754FFFEF738F8FEF74AFAFDF7BAFFD9
:1023B000FFF774FBFEF70CFCFDF78FFFFEF73CFD0B
:1023C0000A210846FEF7FEFB0122A449A4A0FEF75D
:1023D0001DFDFEF731FD4FF4FA70FDF7D7FFFEF754
:1023E000CFF9FFF72BF94FF49670FDF7CFFF0020E0
:1023F000FEF7D8FB0A210846FEF7E4FB01229749C5
:102400009AA0FEF703FDFEF717FD4FF4FA70FDF7F3
:10241000BDFF0120FFF712FB0020FEF7C3FB0A21DE
:102420000846FEF7CFFB01228C4992A0FEF7EEFC96
:10243000FEF702FD4FF4FA70FDF7A8FFFEF79CFDD2
:102440000020FEF7AFFB0A210846FEF7BBFB012286
:1024500082498AA0FEF7DAFCFEF7EEFC4FF4FA7030
:10246000FDF794FFFFF776FF86A0FFF7BFFDFFF7AC
:102470008FFC002089490860ECE08848006842F23F
:102480001071884216D9002084490860FEF774FD57
:102490000020FEF787FB0A210846FEF793FB012286
:1024A0006E4976A0FEF7B2FCFEF7C6FC4FF4FA7058
:1024B000FDF76CFFFFF740FA79490870084600788D
:1024C000102816D00846027876A17748FFF79EFDBF
:1024D0000020FEF767FB0A210846FEF773FB012286
:1024E0005E497148FEF792FCFEF7A6FC6420FDF7FA
:1024F0004DFF00F0A3F901281ED0002067490860B5
:10250000FFF728FF69496A4800F00AFA694908702C
:1025100000F042F96648027862A107A8FFF776FD4D
:10252000634842785FA106A8FFF770FD6048827893
:102530005CA105A8FFF76AFD5F48FFF74BF800288C
:102540002FD1FFF707FF01205B49891E08704870F3
:102550000220C8710E2201A8FDF7E4FD01A80FC8F2
:10256000FDF78CFE0546002405E0295D53A0FFF72A
:102570003DFD601CC4B20C2CF7DB0020FEF712FB03
:102580000A210846FEF71EFB012234494CA0FEF743
:102590003DFCFEF751FC6420FDF7F8FEFDF79DFEC3
:1025A00055E00020FEF7FEFA05210846FEF70AFB7B
:1025B00001222A4944A0FEF729FC05214B20FEF701
:1025C00001FB0122254907A8FEF720FC0521642014
:1025D000FEF7F8FA012221493DA0FEF717FC192168
:1025E0000520FEF7EFFA01221C493AA0FEF70EFC87
:1025F00019213520FEF7E6FA0122184906A8FEF750
:1026000005FC19215020FEF7DDFA0122134933A001
:10261000FEF7FCFB2D210520FEF7D4FA01220F491D
:102620002FA0FEF7F3FB2D214120FEF7CBFA01226C
:102630000A4905A8FEF7EAFB2D215A20FEF7C2FA47
:102640000122064928A0FEF7E1FBFEF7F5FB642016
:10265000FDF79CFE11E70000393900006000002002
:10266000496E697469616C697A65640052433532F8
:102670003200000054545032323900005246323495
:102680000000000053746172746564204170706CC6
:1026900069636174696F6E200A0000001C000020ED
:1026A00020000020256400002100002024000020DC
:1026B000DB00002023000020D00000202563000064
:1026C00048656C6C6F00000054656D7065720000A9
:1026D0004300000048756D690000000025000000FF
:1026E000507265737300000061746D00F0B50B30BB
:1026F000154D20F007010024144A0FE003688B42B7
:102700000BD38B4205D95E1A43184768C3E90067AB
:1027100000E04368136002C004E0021D1068002856
:10272000ECD12046002802D1286808B10020F0BD75
:10273000064A07481060074A121A22F00702C0E949
:10274000002401202860D7E78400002080000020BA
:1027500004050020000700207CB50DA505222946B0
:102760003020FFF797FB052269461020FFF774FB26
:10277000002409E015F8011B1DF80400814201D076
:1027800000207CBD601CC4B2052CF3DB0120F8E7FF
:102790006E5246323400000010B50720FFF71EFBD2
:1027A000044644F0700421460720FFF72DFB10BDBE
:1027B00070B50446052C04DD00210120FFF724FB41
:1027C0000AE00120FFF70AFB05460120A0408543EF
:1027D00029460120FFF718FB70BD10B5FF21E2204C
:1027E000FFF712FB10BD10B5FF21E120FFF70CFB36
:1027F00010BD000008B501210420FEF795F8102057
:102800008DF8030003208DF802001020ADF80000C1
:1028100069460948FDF72AFE10210748FDF7C5FE65
:102820000220ADF8000069460348FDF71FFE0221B3
:102830000148FDF7B8FE08BD0008014010B517209B
:10284000FFF7CCFA00F0030010BD000010B508211E
:102850000020FFF7D9FA3F210120FFF7D5FA032125
:102860000220FFF7D1FA03210846FFF7CDFA032132
:102870000420FFF7C9FA02210520FFF7C5FA0E214F
:102880000620FFF7C1FA00210720FFF7BDFA00215B
:102890001120FFF7B9FA00211220FFF7B5FA002145
:1028A0001320FFF7B1FA00211420FFF7ADFA002141
:1028B0001520FFF7A9FA00211620FFF7A5FA00213D
:1028C0001C20FFF7A1FA00211D20FFF79DFAFFF75A
:1028D00084FFFFF788FFFFF75FFF10210148FDF736
:1028E00064FE10BD0008014010B5044600BF02217F
:1028F0000A48FEF7CBF80028F9D021460748FEF732
:10290000D1F800BF01210548FEF7C0F80028F9D032
:102910000248FEF7C4F8C0B210BD0000003001400C
:1029200070B506460C460720FFF758FAC0F342057B
:10293000062D0DDA0849485DFFF750FA207020781F
:1029400020B1227831466120FFF786FA284670BD13
:1029500000202070FF20FAE7FF2C000870B5044625
:102960000D46072C2FD2DFE804F005062526272880
:10297000040000BF00BF0320FFF730FA401CC6B2BE
:10298000354410211148FDF70EFE1149095D41F053
:102990002000FFF7A9FF00BF15F80109FFF7A4FF0A
:1029A000301EA6F10101CEB2F6D110210748FDF785
:1029B000FCFD09E000BF00BF00BF2978044A105D9C
:1029C000FFF722FA00E000BF00BF70BD0008014021
:1029D000052D000810B50446A01EC1B20320FFF764
:1029E00013FA10BD70B505460020FFF7F7F904464D
:1029F00024F00C0405F00C00044321460020FFF7EE
:102A000003FA70BD70B505460620FFF7E7F90446E6
:102A100024F028042C4321460620FFF7F5F970BD69
:102A200070B505460020FFF7D9F9044624F00104EB
:102A300005F00100044321460020FFF7E5F970BDD1
:102A400070B505460020FFF7C9F90446022D02D1F2
:102A500044F0020401E024F0020421460020FFF7C4
:102A6000D3F970BD10B5044621460520FFF7CCF917
:102A700010BD00002DE9F04104460E461746022025
:102A8000FFF7ACF90121A140084300F03F052946BA
:102A90000220FFF7B9F907F03F010C4A105DFFF77C
:102AA000B3F90120FFF79AF90546012E04D1012060
:102AB000A0402843C5B202E00120A040854329463A
:102AC0000120FFF7A1F9BDE8F0810000FF2C00080C
:102AD00000B585B001214805FDF706FF012108205A
:102AE000FDF722FF144800900020ADF804004BF6DB
:102AF000FF70ADF806001520ADF808000020ADF815
:102B00000A004FF48040ADF80C0069460B48FDF711
:102B10006FFDC020ADF810001C208DF813000320BD
:102B20008DF8120004A90648FDF7A0FC0121034816
:102B3000FDF752FD05B000BDE093040000540040D5
:102B4000000C014070B504460D460026012300220A
:102B50002946204600F008F800B90126204600F07A
:102B60005BF8304670BD00002DE9F04104460D468B
:102B700016461F46208840F48070208044F620606E
:102B80002349086008E022480068401E2049086088
:102B900010B90120BDE8F081A08A00F001000028F2
:102BA000F1D01FB1208840F480602080A6B925F0C4
:102BB0000100208244F620601549086007E01448AF
:102BC0000068401E1249086008B90120E2E7A08AA7
:102BD00000F002000028F2D0012E15D145F00100CE
:102BE000208244F620600A49086007E0084800682F
:102BF000401E0749086008B90120CBE70549204677
:102C0000FDF7D5FC0028F1D0208B0020C2E70000A2
:102C10007800002002000300014644F620600D4ABF
:102C2000106007E00B480068401E0A4A106008B9AF
:102C300001207047888A00F080000028F2D0888A3E
:102C400000F004000028EDD0088840F400700880EF
:102C50000020EEE7780000202DE9F04106460F46FF
:102C600014461D4600231A4639463046FFF77CFFBE
:102C70002146304600F00AF82946304600F006F8B2
:102C80003046FFF7C9FFBDE8F081000044F620623E
:102C9000084B1A6004E0074A1268521E054B1A607E
:102CA000828A02F080021AB9024A1268002AF2D11E
:102CB00001827047780000202DE9F04707468846DA
:102CC00015461E46DDF8209000231A464146384638
:102CD000FFF74AFF29463846FFF7D8FF002405E0F2
:102CE000315D3846FFF7D2FF601CC4B24C45F7DBBC
:102CF0003846FFF791FFBDE8F087E8E8F0F0E11112
:102D000012131415160A0B0C0D0E0F100000000004
:102D100000000000000000000000000000000000B3
:102D20000010001000100010001000100000001033
:102D3000000000000028002800280000000000001B
:102D4000000000000000000000240024007C00249B
:102D50000048007C00480048000000000038005493
:102D600000500038001400540054003800100000D7
:102D700000200054005800300028005400140008BF
:102D80000000000000100028002800100034004857
:102D90000048003400000000001000100010000087
:102DA000000000000000000000000000000800100B
:102DB000002000200020002000200020001000083B
:102DC00000200010000800080008000800080008A3
:102DD0000010002000100038001000280000000043
:102DE00000000000000000000000000000100010C3
:102DF000007C001000100000000000000000000037
:102E00000000000000000000000000100010001092
:102E1000000000000000000000000038000000007A
:102E200000000000000000000000000000000000A2
:102E30000000001000000000000800080010001052
:102E400000100010002000200000000000380044A6
:102E500000440054004400440044003800000000D6
:102E60000010003000500010001000100010001082
:102E70000000000000380044004400040008001076
:102E80000020007C0000000000380044000400180E
:102E9000000400040044003800000000000800188E
:102EA000002800280048007C0008000800000000FE
:102EB000007C00400040007800040004004400381A
:102EC0000000000000380044004000780044004446
:102ED0000044003800000000007C000400080010DE
:102EE00000100020002000200000000000380044F6
:102EF0000044003800440044004400380000000052
:102F00000038004400440044003C00040044003801
:102F100000000000000000000010000000000000A1
:102F20000000001000000000000000000000001081
:102F30000000000000000010001000100000000061
:102F4000000C003000400030000C000000000000C9
:102F5000000000000000007C0000007C0000000079
:102F600000000000000000000060001800040018CD
:102F70000060000000000000003800440004000869
:102F80000010001000000010000000000038004495
:102F9000004C0054005C004000400038000000007D
:102FA00000100028002800280028007C004400446D
:102FB0000000000000780044004400780044004411
:102FC0000044007800000000003800440040004049
:102FD000004000400044003800000000007000483D
:102FE0000044004400440044004800700000000019
:102FF000007C00400040007C004000400040007C1D
:1030000000000000007C00400040007800400040CC
:103010000040004000000000003800440040004034
:10302000005C0044004400380000000000440044FC
:103030000044007C004400440044004400000000C0
:1030400000380010001000100010001000100038B0
:103050000000000000040004000400040004000458
:1030600000440038000000000044004800500060A8
:1030700000500048004800440000000000400040AC
:1030800000400040004000400040007C0000000084
:103090000044006C006C00540044004400440044B0
:1030A0000000000000440064006400540054004C20
:1030B000004C00440000000000380044004400447C
:1030C0000044004400440038000000000078004440
:1030D0000044004400780040004000400000000030
:1030E00000380044004400440044004400540038C8
:1030F00000040000007800440044004400780048C8
:103100000048004400000000003800440040003047
:10311000000800040044003800000000007C00109B
:10312000001000100010001000100010000000003F
:10313000004400440044004400440044004400387B
:10314000000000000044004400440028002800283B
:10315000001000100000000000440044005400541F
:103160000054006C002800280000000000440028E3
:103170000028001000100028002800440000000073
:103180000044004400280028001000100010001027
:1031900000000000007C0004000800100010002067
:1031A0000040007C0000000000180010001000101B
:1031B0000010001000100010001000180020002067
:1031C00000100010001000100008000800000000AF
:1031D000003000100010001000100010001000104F
:1031E00000100030001000280028004400000000FB
:1031F00000000000000000000000000000000000CF
:103200000000000000000000000000FE0020001090
:1032100000000000000000000000000000000000AE
:103220000000000000380044003C0044004C003422
:1032300000000000004000400058006400440044CA
:103240000064005800000000000000000038004446
:10325000004000400044003800000000000400046A
:103260000034004C00440044004C003400000000D6
:103270000000000000380044007C0040004400389A
:1032800000000000000C0010007C00100010001076
:103290000010001000000000000000000034004C8E
:1032A00000440044004C003400040078004000401A
:1032B0000058006400440044004400440000000042
:1032C000001000000070001000100010001000102E
:1032D000000000000010000000700010001000103E
:1032E00000100010001000E00040004000480050B6
:1032F0000060005000480044000000000070001012
:10330000001000100010001000100010000000005D
:103310000000000000780054005400540054005491
:103320000000000000000000005800640044004459
:103330000044004400000000000000000038004489
:103340000044004400440038000000000000000079
:1033500000580064004400440064005800400040ED
:10336000000000000034004C00440044004C0034D5
:103370000004000400000000005800640040004009
:103380000040004000000000000000000038004441
:103390000030000800440038000000000020002039
:1033A000007800200020002000200018000000000D
:1033B000000000000044004400440044004C00347D
:1033C0000000000000000000004400440028002825
:1033D000002800100000000000000000005400540D
:1033E0000054006C002800280000000000000000CD
:1033F00000440028001000100028004400000000D5
:1034000000000000004400440028002800100010C4
:103410000010006000000000007C00080010002088
:103420000040007C00000000001800100010001098
:1034300000200020001000100010001800100010E4
:1034400000100010001000100010001000100010FC
:1034500000300010001000100008000800100010DC
:10346000001000300000000000000074004C00005C
:10347000000000000000000000000000000000004C
:10348000000000000000000000000000000000003C
:103490000000000000000000000000000000000C20
:1034A000000C000C000C000C000C000C000C000CBC
:1034B000000C000C0000000C000C000000000000DC
:1034C0000000001B001B001B001B001B0000000075
:1034D00000000000000000000000000000000000EC
:1034E0000000000000008019801980198019C07F39
:1034F000C07F80190033C07FC07F003300330033AA
:1035000000330000000000000000001E003F807536
:1035100080650074003C001E0007800580658065A2
:103520008075003F001E00040004000000000070D1
:1035300000D840D8C0D880D900730006000C801B8A
:10354000C036C066C046C006800300000000000010
:103550000000001E003F003300330033001E000C4B
:10356000C03CC066806380618063C03E801C0000F8
:10357000000000000000000C000C000C000C000C0F
:10358000000000000000000000000000000000003B
:1035900000000000000000008000000100030006A1
:1035A00000060004000C000C000C000C000C000CC9
:1035B0000004000600060003000180000020001047
:1035C0000018000C000C00040006000600060006AF
:1035D000000600060004000C000C0018001000207B
:1035E0000000000C002D003F001E00330000000012
:1035F00000000000000000000000000000000000CB
:1036000000000000000000000000000C000C000C96
:10361000000CC0FFC0FF000C000C000C000C0000F0
:10362000000000000000000000000000000000009A
:10363000000000000000000000000000000000008A
:103640000000000C000C0004000400080000000052
:103650000000000000000000000000000000001E4C
:10366000001E00000000000000000000000000003C
:10367000000000000000000000000000000000004A
:1036800000000000000000000000000C000C000022
:103690000000000000000003000300030006000615
:1036A00000060006000C000C000C000C00180018AE
:1036B00000180000000000000000001E003F003362
:1036C000806180618061806D806D806180618061DA
:1036D0000033003F001E0000000000000000000654
:1036E000000E001E0036002600060006000600063A
:1036F00000060006000600060006000000000000AC
:103700000000001E003F8073806180618001000323
:103710000006000C001800300060807F807F0000F1
:10372000000000000000001C003E00630063000376
:10373000000E000E00038001800180618073003F55
:10374000001E00000000000000000006000E000E39
:10375000001E001E0016003600360066807F807F47
:103760000006000600060000000000000000007FC8
:10377000007F006000600060006E007F8063800159
:10378000800180618073003F001E00000000000087
:103790000000001E003F803380610060006E007FEB
:1037A00080738061806180618033003F001E000073
:1037B000000000000000807F807F80010003000384
:1037C00000060006000C000C000C00080018001891
:1037D00000180000000000000000001E003F806391
:1037E000806180610021001E003F806180618061F6
:1037F0008061003F001E0000000000000000001E6D
:10380000003F00738061806180618073803F801D14
:10381000800180610073003F001E00000000000076
:1038200000000000000000000000000C000C000080
:1038300000000000000000000000000C000C000070
:103840000000000000000000000000000000000078
:10385000000C000C00000000000000000000000C44
:10386000000C00040004000800000000000000003C
:1038700080008003000E003800600038000E8003D6
:1038800080000000000000000000000000000000B8
:10389000000000000000807F807F00000000807F2B
:1038A000807F000000000000000000000000000019
:1038B000000000000000000000400070001C000735
:1038C00080010007001C00700040000000000000A4
:1038D000000000000000001F803FC071C060C000F9
:1038E000C00180030007000E000C000C0000000C5B
:1038F000000C0000000000000000001E003F8031AE
:1039000080718063806F806D806D806F80670060E4
:103910000032003E001C0000000000000000000E0D
:10392000000E001B001B001B001B80318031803FFC
:10393000803F8031C060C060C060000000000000B7
:103940000000007C007E0063006300630063007E73
:10395000007E0063806180618063007F007E0000E4
:10396000000000000000001E003F80318061006008
:103970000060006000600060006080618031003F96
:10398000001E0000000000000000007C007F0063BB
:10399000806380618061806180618061806100639B
:1039A0000063007E007C0000000000000000807FBB
:1039B000807F0060006000600060007F007F00602A
:1039C000006000600060807F807F000000000000D9
:1039D0000000807F807F0060006000600060007FEA
:1039E000007F006000600060006000600060000018
:1039F000000000000000001E003F80318061006078
:103A00000060006080638063806180618031803FFE
:103A1000001E0000000000000000806180618061E5
:103A2000806180618061807F807F80618061806152
:103A30008061806180610000000000000000003FA4
:103A4000003F000C000C000C000C000C000C000CE3
:103A5000000C000C000C003F003F000000000000C4
:103A600000008001800180018001800180018001CF
:103A700080018001806180618073003F001E000032
:103A8000000000000000C060806100630066006606
:103A9000006C0078007C00660066006380618061D5
:103AA000C0600000000000000000006000600060D6
:103AB0000060006000600060006000600060006006
:103AC0000060807F807F0000000000000000C07167
:103AD000C071C07BC07AC06AC06AC06EC064C0607A
:103AE000C060C060C060C060C06000000000000036
:103AF000000080718071807980798079806D806D1F
:103B0000806D806580678067806780638063000068
:103B1000000000000000001E003F00338061806153
:103B20008061806180618061806180610033003FDD
:103B3000001E0000000000000000007E007F806387
:103B40008061806180618063007F007E0060006032
:103B50000060006000600000000000000000001E27
:103B6000003F00338061806180618061806180619D
:103B7000806580670033803F401E00000000000029
:103B80000000007E007F8063806180618063007F31
:103B9000007E00660063006380618061C060000099
:103BA000000000000000000E001F80318031003056
:103BB0000038001E00078003806180618031003F73
:103BC000001E0000000000000000C0FFC0FF000C4D
:103BD000000C000C000C000C000C000C000C000C85
:103BE000000C000C000C00000000000000008061D0
:103BF00080618061806180618061806180618061BD
:103C0000806180618073003F001E000000000000A2
:103C10000000C060C060C060803180318031001B16
:103C2000001B001B001B000E000E000E0004000015
:103C3000000000000000C0C0C0C0C0C0C0C0C0C004
:103C4000C0CC804C804C805E8052805280738061FA
:103C500080610000000000000000C0C08060806142
:103C60000033003B001E000C000C001E001F003B38
:103C700080718061C0C00000000000000000C0C072
:103C80008061806100330033001E001E000C000CB8
:103C9000000C000C000C000C000C000000000000E8
:103CA0000000803F803F8001000300030006000CFD
:103CB000000C0018001800300060807F807F00003A
:103CC00000000000000F000F000C000C000C000CA6
:103CD000000C000C000C000C000C000C000C000C84
:103CE000000C000C000F000F000000180018001856
:103CF000000C000C000C000C00060006000600067C
:103D0000000300030003000000000000001E001E6E
:103D10000006000600060006000600060006000673
:103D2000000600060006000600060006001E001E33
:103D30000000000C000C001E0012003300338061F4
:103D40008061000000000000000000000000000092
:103D50000000000000000000000000000000000063
:103D60000000000000000000000000000000000053
:103D700000000000E0FF0000000000380018000C08
:103D80000000000000000000000000000000000033
:103D90000000000000000000000000000000000023
:103DA000000000000000001F803F80618001801F34
:103DB000803F80618063807FC03800000000000089
:103DC00000000060006000600060006E007F807393
:103DD00080618061806180618073007F006E00007F
:103DE0000000000000000000000000000000001EB5
:103DF000003F807380610060006080618073003FDD
:103E0000001E000000000000000080018001800111
:103E10008001801D803F807380618061806180614E
:103E20008073803F801D0000000000000000000043
:103E3000000000000000001E003F00738061807FD2
:103E4000807F00608071003F001E000000000000C5
:103E50000000C007C00F000C000C807F807F000CAA
:103E6000000C000C000C000C000C000C000C0000FE
:103E7000000000000000000000000000801D803FE6
:103E8000807380618061806180618073803F801D6C
:103E900080018063007F003E0000006000600060E1
:103EA0000060006F807F80718061806180618061CF
:103EB0008061806180610000000000000000000659
:103EC000000600000000003E003E0006000600065E
:103ED00000060006000600060006000000000000C4
:103EE0000006000600000000003E003E000600063E
:103EF0000006000600060006000600060006004652
:103F0000007E003C00000060006000600060806196
:103F100000630066006C007C0076006300638061D3
:103F2000C0600000000000000000003E003E0006EF
:103F30000006000600060006000600060006000651
:103F4000000600060006000000000000000000005F
:103F500000000000000080DDC0FFC0CEC0CCC0CC9F
:103F6000C0CCC0CCC0CCC0CCC0CC00000000000095
:103F700000000000000000000000006F807F8071E2
:103F8000806180618061806180618061806100000A
:103F90000000000000000000000000000000001E03
:103FA000003F807380618061806180618073003F29
:103FB000001E0000000000000000000000000000E3
:103FC000006E007F8073806180618061806180739A
:103FD000007F006E00600060006000600000000074
:103FE00000000000801D803F8073806180618061DF
:103FF00080618073803F801D80018001800180018D
:10400000000000000000000000000067803F003951
:104010000030003000300030003000300030000050
:104020000000000000000000000000000000001E72
:10403000803F80610060007F803F80018061007F61
:10404000001E000000000000000000000008001832
:104050000018007F007F00180018001800180018D2
:104060000018801F800F000000000000000000000A
:1040700000000000000080618061806180618061DB
:10408000806180618063807F803D000000000000CF
:1040900000000000000000000000C060803180319E
:1040A0008031001B001B001B000E000E00060000EC
:1040B000000000000000000000000000000080DDA3
:1040C00080DD80DD00550055005500770077002227
:1040D00000220000000000000000000000000000BE
:1040E0000000806100330033001E000C000C001E35
:1040F0000033003380610000000000000000000079
:104100000000000080618061803100330033001BBB
:10411000001B001B000E000E000E001C007C007037
:1041200000000000000000000000C07FC07F800190
:1041300000030006000C00180030C07FC07F0000A4
:10414000000000008003800700060006000600064D
:104150000006000E001C001C000E000600060006F3
:104160000006000680078003000600060006000621
:10417000000600060006000600060006000600060F
:104180000006000600060006000600060038003C97
:10419000000C000C000C000C000C000E00070007C7
:1041A000000E000C000C000C000C000C003C003851
:1041B0000000000000000000000000000000803847
:1041C000807F0047000000000000000000000000A9
:1041D00000000000000000000000000000000000DF
:1041E00000000000000000000000000000000000CF
:1041F00000000000000000000000000000000000BF
:104200000000000000000000E003E003E003E00322
:10421000E003E003E003E003C003C003C001C0010A
:10422000C001C001C001000000000000E003E00385
:10423000E003000000000000000000003C1E3C1EE7
:104240003C1E3C1E3C1E3C1E3C1E000000000000AC
:10425000000000000000000000000000000000005E
:10426000000000000000000000000000000000004E
:10427000CE01CE03DE039E039C039C07FF3FFF7F1E
:104280003807380F780F780F780EFFFFFFFFF01E0A
:10429000F01CE01CE03CE03DE039000000000000C4
:1042A00000000000FC03FE0FEE1FE01EE01EE01EFB
:1042B000E01EE01FE00FE007F003FC01FE01FE013D
:1042C000FE01FE01FE01FE01FE3DFC3FF00FE0019C
:1042D000E001000000000000033E07F78FE78EE7D3
:1042E0009EE3BCE3B8E7F8E7F0F7E03FC001FF0367
:1042F000FF07F307F30FF31EF33CF338F3787FF077
:104300003FE000000000000000000000E007F80FA0
:10431000780F781F781F781F780FF00FE00F801F3D
:10432000C37FC3FBE7F3F7F1F7F0FFF07FF03EF850
:104330007F7CFF3FEF1F0000000000000000000036
:10434000E003E003E003E003E003C003C00100007A
:10435000000000000000000000000000000000005D
:10436000000000000000000000000000000000004D
:10437000000000003F007C00F001E001C003C00726
:1043800080078007800F000F000F000F000F000F45
:10439000000F800F80078007C007C003E001F00115
:1043A0007C003F000F000000007E001FC007C0031C
:1043B000E001F001F000F000F800780078007800EB
:1043C000780078007800F800F000F000F001E001DB
:1043D000C003C007001F007E00780000E003C00398
:1043E000C001CE39FF3F7F3F20037003F807780FED
:1043F0003C1F380600000000000000000000000024
:1044000000000000000000000000000000000000AC
:10441000000000000000000000000000C001C0011A
:10442000C001C001C001C001C001FFFFFFFFC0010A
:10443000C001C001C001C001C001000000000000B7
:10444000000000000000000000000000000000006C
:10445000000000000000000000000000000000005C
:10446000000000000000E003E003E003E003E001DF
:10447000E001E001C0018003000000000000000036
:104480000000000000000000000000000000FE3FEF
:10449000FE3F0000000000000000000000000000DF
:1044A000000000000000000000000000000000000C
:1044B00000000000000000000000000000000000FC
:1044C0000000000000000000000000000000E00309
:1044D000E003E003E0030000000000000000000033
:1044E0000F000F001E001E003C003C00780078000A
:1044F000F000F000E001E001C003C0038007800786
:10450000000F000F001E001E003C003C00780078E9
:1045100000F00000F007F80F7C1F3E3E1E3C1F7CA1
:104520001F7C0F780F780F780F780F780F780F783F
:104530001F7C1F7C1E3C3E3E7C1FF80FF0070000D6
:104540000000000000000000F000F007F03FF03F26
:10455000F001F001F001F001F001F001F001F001D3
:10456000F001F001F001F001F001F001F001FF3F76
:10457000FF3F00000000000000000000E00FF83FD7
:104580007C3C3C003E003E003E003C003C007C0089
:10459000F800F001E003C0078007000F001E003E96
:1045A000003CFE3FFE3F0000000000000000000055
:1045B000F00FF81F7C1C3E003E003E003C003C001B
:1045C000F800F00FF80F7C003E001E001E001E00D9
:1045D0001E003E007C1CF81FE01F000000000000D1
:1045E000000000007800F800F800F801F803F80770
:1045F000F807780F781E781E783C78787878FFFF77
:10460000FFFF7800780078007800780078000000DC
:104610000000000000000000FC1FFC1FFC1F001E2B
:10462000001E001E001E001EE01FF81FFC007C0084
:104630003E003E001E003E003E003C007C1CF81F79
:10464000E01F00000000000000000000FC01FE0769
:104650008E0F001F001E003E003C003CF83DFC3F5A
:104660003E7F1F7E0F3C0F3C0F3C0F3C0F3E1F1E3A
:104670003E1FFC0FF00300000000000000000000DF
:10468000FF3FFF3FFF3F0F001E001E003C003800B1
:104690007800F000F000E001E001C003C0038007F3
:1046A000800F800F000F001F001F0000000000009F
:1046B00000000000F807FC0F3E1F1E1E1E3E1E3E9F
:1046C0001E1E3C1FF80FF007F80FFC1E3E3E1F3C5D
:1046D0001F7C0F7C0F7C1F3C3E3FFC1FF00700003F
:1046E0000000000000000000F007F80F7C1E3E3CB8
:1046F0001E3C1F7C1F7C1F7C1F7C1F3C3F3EFF1FFE
:10470000EF071F001E001E003E003C00F838F03F7F
:10471000E01F00000000000000000000000000009A
:104720000000000000000000E003E003E003E003FD
:104730000000000000000000000000000000E00396
:10474000E003E003E00300000000000000000000C0
:10475000000000000000000000000000E003E00393
:10476000E003E00300000000000000000000000083
:104770000000E003E003E003E003E001E001E0010A
:10478000C0038003000000000000000000000000E3
:1047900003000F003F00FC00F003C00F003F00FECD
:1047A000003FC00FF003FC003F000F0003000000BB
:1047B00000000000000000000000000000000000F9
:1047C000000000000000000000000000FFFFFFFFED
:1047D000000000000000FFFFFFFF000000000000DD
:1047E00000000000000000000000000000000000C9
:1047F000000000000000000000E000F8007E801FC4
:10480000E007F8017E001F007E00F801E007801F2E
:10481000007E00F800E00000000000000000000042
:10482000F01FFC3F3E381F381F381E001E003C00A2
:104830007800F000E001C003C003C007C00700001B
:1048400000000000C007C007C00700000000000013
:1048500000000000F803FE0F1E1F0F3E7F3CFF7894
:10486000EF79C773C7F38FF38FF38FF39FF39FF342
:10487000FF73FF7BF779003C1C1FFC0FF80300005F
:104880000000000000000000000000000000E00345
:10489000E003F007F007F007780F780F7C0E3C1E5E
:1048A0003C1E3E3CFE3FFF3F1F780F780FF007F0A5
:1048B00007F0000000000000000000000000000001
:1048C0000000F83FFC3F3E3C1E3C1E3C1E3C3E3C74
:1048D0007C3CF03FF83F7E3C1F3C1F3C0F3C0F3CB4
:1048E0001F3CFE3FF83F00000000000000000000F9
:1048F000000000000000FF01FF07871F003E003C92
:10490000007C00780078007800780078007C007CDB
:10491000003E003F831FFF07FF0100000000000072
:1049200000000000000000000000F07FFC7F7E78A7
:104930001F781F780F780F780F780F780F780F781F
:104940000F780F781F781E787E78F87FE07F000060
:104950000000000000000000000000000000FF3F19
:10496000FF3F003E003E003E003E003E003EFE3F58
:10497000FE3F003E003E003E003E003E003EFF3F48
:10498000FF3F0000000000000000000000000000E9
:104990000000FF1FFF1F001E001E001E001E001E45
:1049A000001EFF1FFF1F001E001E001E001E001E17
:1049B000001E001E001E000000000000000000009D
:1049C000000000000000FE03FF0F871F003E007C78
:1049D000007C007800F800F87FF87FF80F780F7CF3
:1049E0000F7C0F3E8F1FFF0FFE0300000000000032
:1049F000000000000000000000001F7C1F7C1F7CE6
:104A00001F7C1F7C1F7C1F7C1F7CFF7FFF7F1F7C08
:104A10001F7C1F7C1F7C1F7C1F7C1F7C1F7C000059
:104A20000000000000000000000000000000FF3F48
:104A3000FF3FE003E003E003E003E003E003E00303
:104A4000E003E003E003E003E003E003E003FF3FF3
:104A5000FF3F000000000000000000000000000018
:104A60000000FC1FFC1F7C007C007C007C007C00A4
:104A70007C007C007C007C007C007C00780078005E
:104A8000F838F03FC03F00000000000000000000C8
:104A90000000000000001F3C1E3C3C3C783CF03C09
:104AA000E03DE03FC03F803FC03FE03FF03DF03C95
:104AB000783C7C3C3E3C1F3C0F3C0000000000006A
:104AC00000000000000000000000003E003E003E2C
:104AD000003E003E003E003E003E003E003E003EE6
:104AE000003E003E003E003E003EFF3FFF3F000014
:104AF00000000000000000000000000000001FF89F
:104B00001FFC1FFC3FFE3FFE3FFE7FFF77FF77FF4E
:104B1000F7F7E7F7E7F3E7F3C7F307F007F007F076
:104B200007F000000000000000000000000000008E
:104B300000000F7C0F7C0F7E0F7F0F7F8F7F8F7F9A
:104B4000CF7FEF7BEF79FF79FF78FF787F783F7831
:104B50003F781F781F780000000000000000000070
:104B6000000000000000F007FC1F3E3E1F7C0F7895
:104B70000F780FF80FF80FF80FF80FF80FF80F78FD
:104B80000F781F7C3E3EFC1FF00700000000000075
:104B900000000000000000000000FC3FFF3F1F3E3F
:104BA0000F3E0F3E0F3E0F3E1F3E3F3EFC3FF03F8D
:104BB000003E003E003E003E003E003E003E000043
:104BC0000000000000000000000000000000F007EE
:104BD000FC1F3E3E1F7C0F780F780FF80FF80FF880
:104BE0000FF80FF80FF80F780F781F7C3E3EFC1F70
:104BF000F8077C003F000F000300000000000000E9
:104C00000000F03FFC3F7E3C3E3C1E3C1E3C3E3CD8
:104C10003C3CFC3CF03FE03FF03DF83C7C3C3E3C03
:104C20001E3C1F3C0F3C0000000000000000000084
:104C3000000000000000FC07FE1F0E3E003C003C90
:104C4000003C003EC01FF80FFE037F001F000F0056
:104C50000F001F203E3CFC3FF01F00000000000042
:104C600000000000000000000000FFFFFFFFE00365
:104C7000E003E003E003E003E003E003E003E0031C
:104C8000E003E003E003E003E003E003E0030000EF
:104C900000000000000000000000000000000F7C89
:104CA0000F7C0F7C0F7C0F7C0F7C0F7C0F7C0F7CAC
:104CB0000F7C0F7C0F7C0F7C1E3C1E3C3E3EFC1F7D
:104CC000F0070000000000000000000000000000ED
:104CD000000007F007F007F80F780F7C1E3C1E3C21
:104CE0001E3E3C1E3C1F781F780FF80FF007F007A0
:104CF000F007E003E00300000000000000000000F7
:104D000000000000000003E003F003F007F0E7F309
:104D1000E7F3E7F3E773F77BF77FFF7F7F7F7F7F23
:104D20007E7F7E3F3E3E3E3E3E3E00000000000055
:104D30000000000000000000000007F80F7C1E3E8D
:104D40003E3E3C1FF80FF007E007E003E003F007EA
:104D5000F80F7C0F7C1E3E3C1F780F780FF0000090
:104D6000000000000000000000000000000007F844
:104D700007780F7C1E3C1E3E3C1F780FF80FF00793
:104D8000E003E003E003E003E003E003E003E0030B
:104D9000E003000000000000000000000000000030
:104DA0000000FF7FFF7F0F001F003E007C00F80027
:104DB000F000E001E003C007800F000F001E003E7E
:104DC000007CFF7FFF7F000000000000000000006B
:104DD000FF0780078007800780078007800780071C
:104DE000800780078007800780078007800780078B
:104DF0008007800780078007800780078007FF07FC
:104E0000FF07000000780078003C003C001E001EF8
:104E1000000F000F80078007C003C003E001E0011E
:104E2000F000F000780078003C003C001E001E00FE
:104E30000F000F0007000000F07FF000F000F0000E
:104E4000F000F000F000F000F000F000F000F000E2
:104E5000F000F000F000F000F000F000F000F000D2
:104E6000F000F000F000F07FF07F0000C000C00113
:104E7000C001E003E003F007F0077807780F380F70
:104E80003C1E3C1E1E3C1E3C0F380F78077800006D
:104E90000000000000000000000000000000000012
:104EA0000000000000000000000000000000000002
:104EB00000000000000000000000000000000000F2
:104EC00000000000000000000000FFFFFFFF0000E6
:104ED00000000000F00000000000000000000000E2
:104EE00000000000000000000000000000000000C2
:104EF00000000000000000000000000000000000B2
:104F000000000000000000000000000000000000A1
:104F100000000000F80FFC3F7C3C3E003E003E00DD
:104F2000FE07FE1F3E3E3E7C3E783E7C7E7CFF3F81
:104F3000CF1F00000000000000000000003C003C0B
:104F4000003C003C003C003CF83DFE3F3E3F1F3E25
:104F50000F3C0F3C0F3C0F3C0F3C0F3C1F3C1E3CDA
:104F60003E3FFC3FF03B000000000000000000005E
:104F7000000000000000000000000000FE03FF0F22
:104F8000871F003E003E003C007C007C007C003C13
:104F9000003E003E871FFF0FFE03000000000000E0
:104FA000000000001F001F001F001F001F001F0047
:104FB000FF07FF1F3F3E1F3C1F7C1F7C1F7C1F788D
:104FC0001F781F7C1F7C3F3C7F3EFF1FDF0F0000D0
:104FD00000000000000000000000000000000000D1
:104FE00000000000F803FC0F3E1F1E3E1F3C1F7C0C
:104FF000FF7FFF7F007C007C003C003E071FFF0F0F
:10500000FE0300000000000000000000FF01E103BB
:10501000C003C007C007C007FF7FFF7FC007C007EE
:10502000C007C007C007C007C007C007C007C00748
:10503000C007C007C007000000000000000000001B
:10504000000000000000000000000000EF07FF1F4C
:105050007F3E1F3C1F7C1F7C1F781F781F781F7CA2
:105060001F7C3F3C7F3EFF1FDF0F1E001E001E0007
:105070007C38F83F003C003C003C003C003C003CDD
:10508000FC3DFE3F9E3F1F3F1F3E1F3C1F3C1F3C01
:105090001F3C1F3C1F3C1F3C1F3C1F3C1F3C000093
:1050A0000000000000000000F001F001000000001E
:1050B00000000000E07FE07FE001E001E001E001AE
:1050C000E001E001E001E001E001E001E001E001D8
:1050D000E00100000000000000000000F800F800FF
:1050E0000000000000000000F83FF83FF800F80062
:1050F000F800F800F800F800F800F800F800F800F0
:10510000F800F800F800F800F800F000F071E07F17
:10511000003C003C003C003C003C003C1F3C3E3C52
:105120007C3CF83CF03DE03DC03FC03FE03FF03DFF
:10513000F83C7C3C3E3C1F3C1F3C00000000000053
:1051400000000000F07FF001F001F001F001F0013B
:10515000F001F001F001F001F001F001F001F001C7
:10516000F001F001F001F001F001F001F0010000A8
:10517000000000000000000000000000000000002F
:10518000000000009EF7FFFFFFFFFFFFE7FBE7F9CE
:10519000C7F1C7F1C7F1C7F1C7F1C7F1C7F1C7F14F
:1051A000C7F1000000000000000000000000000047
:1051B0000000000000000000FC3DFE3F9E3F1F3F3E
:1051C0001F3E1F3C1F3C1F3C1F3C1F3C1F3C1F3C05
:1051D0001F3C1F3C1F3C00000000000000000000BE
:1051E000000000000000000000000000F007FC1FAD
:1051F0003E3E1F3C1F7C0F780F780F780F780F789A
:105200001F7C1F3C3E3EFC1FF0070000000000001A
:10521000000000000000000000000000000000008E
:10522000F83DFE3F3E3F1F3E0F3C0F3C0F3C0F3C06
:105230000F3C0F3C1F3C1E3E3E3FFC3FF83F003CF6
:10524000003C003C003C003C00000000000000006E
:1052500000000000EE07FE1F7E3E1E3C1E7C1E78F6
:105260001E781E781E781E781E7C3E7C7E3EFE1FB9
:10527000DE0F1E001E001E001E001E0000000000AB
:1052800000000000000000007F1FFF1FE71FC71F76
:10529000871F001F001F001F001F001F001F001F8F
:1052A000001F001F001F00000000000000000000A1
:1052B000000000000000000000000000FC07FE1FCE
:1052C0000E1E003E003E003FE01FFC07FE003E00B9
:1052D0001E001E003E3CFC3FF01F000000000000CE
:1052E0000000000000000000000080078007800729
:1052F000FF7FFF7F80078007800780078007800788
:105300008007800780078007C007FF03FF010000B8
:10531000000000000000000000000000000000008D
:10532000000000001E3C1E3C1E3C1E3C1E3C1E3C61
:105330001E3C1E3C1E3C1E3C3E3C7E3CFE3EFE1F78
:10534000DE0F000000000000000000000000000070
:10535000000000000000000007F00F780F781E3CEE
:105360001E3C1E3E3C1E3C1E780F780FF00FF007CF
:10537000F007E003E0030000000000000000000070
:1053800000000000000000000000000003F0E3F156
:10539000E3F3E7F3F7F3F7F3F77F777F7F7F7F7F21
:1053A0007F7F3E3E3E3E3E3E3E3E0000000000000F
:1053B00000000000000000000000000000000000ED
:1053C0000F7C1E3E3C3E3C1FF80FF007F007E00349
:1053D000F007F807F80F7C1E3E3E1F3C1F780000C8
:1053E00000000000000000000000000000000000BD
:1053F0000000000007F80F780F7C1E3C1E3C3C1E8E
:105400003C1E3C1F780FF80FF007F007E003E003A5
:10541000C003C003C0038007800F007F00000000AE
:105420000000000000000000FF3FFF3F1F003E00A3
:105430007C00F800F001E003C007800F001F001E91
:10544000003CFF7FFF7F0000000000000000000024
:10545000FE01E003C003C003C003C003E001E0019C
:10546000E001C001C003803F803FC003C001E001F4
:10547000E001E001C003C003C003C003E003FE017C
:105480007E000000C001C001C001C001C001C00118
:10549000C001C001C001C001C001C001C001C00104
:1054A000C001C001C001C001C001C001C001C001F4
:1054B000C001C001C0010000C03FE003E001E00105
:1054C000E001E001C001C003C003C001E001FE0033
:1054D000FE00E001C001C003C003C001E001E00123
:1054E000E001E001E003C03F003F000000000000D9
:1054F00000000000000000000000000000000000AC
:105500000000073FC77FE773FFF17EF00000000057
:10551000000000000000000000000000000000008B
:1055200040550008000000209400000034200008CE
:10553000D4550008940000206C0A000044200008A4
:10554000000000000000000000000000000000005B
:10555000821F2F00B20000000000000000000000C9
:10556000000000000000000000A24A04000000004B
:105570000000000001020304060708090000000003
:1055800001020304010203040607080902040608D5
:105590000000000000000000070A00000C2D0008B9
:1055A0000B12000078340008101A0000D4410008E3
:1055B00000000000000000000000000000000000EB
:1055C00000000000000000000000000000000000DB
:0455D00000000000D7
:04000005080000ED02
:00000001FF
